:020000040800F2
:10000000C808002029240008FD010008FF0100089D
:10001000090200080D02000811020008000000009B
:1000200000000000000000000000000015020008B1
:100030001702000800000000190200081B02000857
:1000400043240008432400084324000843240008F4
:1000500043240008432400084324000843240008E4
:1000600043240008432400084324000843240008D4
:1000700043240008432400084324000843240008C4
:1000800043240008432400084324000843240008B4
:10009000A519000843240008BD1A0008FF20000825
:1000A0004324000843240008432400084324000894
:1000B0004F150008931000086B1200084324000835
:1000C0004324000843240008432400084324000874
:1000D000432400089D23000843240008432400080B
:1000E0004324000843240008432400084324000854
:1000F0004324000843240008432400084324000844
:100100004324000843240008D913000843240008AE
:100110004324000843240008070E00084324000875
:100120004324000843240008432400084324000813
:1001300000F002F800F03AF80AA090E8000C8244BF
:100140008344AAF10107DA4501D100F02FF8AFF29C
:10015000090EBAE80F0013F0010F18BFFB1A43F0A5
:10016000010318476C5800008C580000103A24BF57
:1001700078C878C1FAD8520724BF30C830C144BF0C
:1001800004680C607047000000230024002500264E
:10019000103A28BF78C1FBD8520728BF30C148BFEA
:1001A0000B6070471FB51FBD10B510BD04F0A8FF50
:1001B0001146FFF7F7FF00F008F804F0DAFF03B488
:1001C000FFF7F2FF03BC02F093F802F052F813E0DD
:1001D00001F024FE00F0DBFD00F085F900F0E1FB0A
:1001E00000F00AFD00F04CFC00F00BFC00F0AEFC4F
:1001F00000F0C4FC00F0FEF9EAE70000704702E0FE
:1002000006A004F0C7FEFBE700BFFEE700BFFEE765
:1002100000BFFEE7704770477047704768617264BF
:100220006661756C740D0A000CB500200190009099
:100230006C48006840F480306A49086000BF694833
:10024000006800F4003000900198401C0190009874
:1002500018B90198B0F5A06FF1D16248006800F4B8
:10026000003010B10120009001E0002000900098C3
:10027000012843D15C48006840F010005A490860EA
:100280000846006820F0030008600846006840F057
:100290000200086053484068524948600846406878
:1002A00048600846406840F48060486008464068FE
:1002B00020F47C1048600846406840F4E81048602C
:1002C0000846006840F08070086000BF454800683C
:1002D00000F000700028F9D04248406820F0030088
:1002E000404948600846406840F00200486000BF4E
:1002F0003C48406800F00C000828F9D10CBD10B54E
:10030000FFF792FF10BD10B53648006840F00100BD
:10031000344908600846406834490840314948601B
:1003200008460068324908402E49086008460068BF
:1003300020F4802008600846406820F4FE004860F1
:100340004FF41F008860FFF7DAFF4FF00060294983
:10035000086010BD10B5002100200022214B5B6811
:1003600003F00C0121B1042906D0082928D107E0A7
:10037000214B224C236027E01F4B204C236023E0BD
:10038000184B5B6803F47010164B5B6803F4803203
:10039000022303EB904022B9194B4343174C2360CF
:1003A0000DE0104B5B6803F4003323B1144B43435F
:1003B000124C236003E0104B4343104C236003E0D6
:1003C0000D4B0E4C236000BF00BF064B5B68C3F3B0
:1003D00003130C4CE15C094B1B68CB40074C2360BA
:1003E00010BD000000100240002002400000FFF895
:1003F000FFFFF6FE08ED00E000127A00000000208A
:1004000000093D00040000206E480079C0F341005F
:1004100040B900206C4908606C49C1F8B0016C49D2
:1004200008601DE067480079C0F34100012808D149
:100430006549086000206549C1F8B0016449086059
:100440000EE060480079C0F34100022808D1002086
:100450005D49086001205D49C1F8B0015C49086050
:100460005848007900F0010020B101205649091FC9
:10047000086003E000205449091F086055480078CF
:10048000C0F3400018B101205349086002E0002089
:10049000514908604F480078C0F3800018B101202E
:1004A0004E49086002E000204C4908604948007845
:1004B000C0F3C00020B101204749091F086003E0D4
:1004C00000204549091F086042480078C0F3001029
:1004D00020B1012041491039086003E000203F4964
:1004E00010390860704710B53D48407A60B93C4803
:1004F000C07C48B93A48407F30B93A48007820F08B
:1005000080008030374908703548407A01280FD183
:100510002C483349491C0A680260496841603148E7
:10052000007820F080002F49087000202C49487284
:100530002B48407F01281BD126492948401C42698D
:100540000A60806948600021254841772148407849
:1005500000F0010018B900202349087002E00120D2
:10056000214908701F48007820F080001D4908705C
:100570001E48407A01281ED11D481C49491C0A68A2
:1005800002604968416000201849487218480078A4
:1005900010B91748407838B11248007820F0200090
:1005A00020301049087005E00E48007820F0200047
:1005B0000C49087000BF0C480078012801D1FFF7F2
:1005C00023FF10BDAD000020B881224200802242EE
:1005D00098012442BD000020B8012342B481214289
:1005E00032010020F8000020FA0000205A0100200B
:1005F000E500002010B51B48007800F00100A0B114
:1006000019481A490A68026049684160082201468F
:10061000174801F0FEF91348007820F00100114955
:10062000087011480021016041600E4800780121E6
:10063000B1EBD01F15D10C480E490A688262496897
:10064000C162082200F128010B4801F0E2F90548D7
:10065000007820F08000034908700348002181627F
:10066000C16210BD400000206F010020CD000020BD
:10067000F711DC18DD000020F733DC1810B5CC488A
:10068000006868B90124CB480078B0B9CAA004F06A
:1006900081FC0120C74908700020C94908700CE09E
:1006A0000024C748007840B9C6A004F073FC0020BD
:1006B000C04908700120C2490870204610BD10B51D
:1006C000C3480078C0F3801060B9FFF7D7FFC14975
:1006D000087008460178C048407861F38200BE493E
:1006E000487008E0FFF7CAFF28B9B948007820F041
:1006F0004000B7490870B748007810B90020B749E2
:100700000860AB48001F006838B9B348007820F093
:1007100010001030B049087005E0AF48007820F0B4
:100720001000AD490870A2480838006838B9AA48D6
:10073000007820F008000830A749087005E0A648B6
:10074000007820F00800A449087099480C38006827
:1007500038B9A148007820F00400001D9E490870B7
:1007600005E09D48007820F004009B4908709048FF
:100770001038006838B99848007820F00200801CD2
:100780009549087005E09448007820F002009249ED
:1007900008709348006838B98F48007820F001004D
:1007A000401C8D49087005E08B48007820F001005E
:1007B000894908708A48001F006801280BD18848C1
:1007C00008380068012806D18348407820F00300EB
:1007D0008149487030E08248001F006860B9804855
:1007E00008380068012807D17B48407820F00300D2
:1007F000401C794948701FE07948001F00680128B3
:100800000BD177480838006838B97348407820F031
:100810000300801C704948700EE07148001F00689A
:1008200050B96F480838006830B96B48407820F0FC
:100830000300C01C6849487069480C3800680128EA
:1008400007D16348007820F020002030604908700C
:1008500005E05F48007820F020005D49087010BD79
:100860005D480078C0F3001020B95E48007800F0C1
:10087000010018B101205C49086002E000205A49DB
:10088000086053480078C0F3401020B955480078FC
:10089000C0F3401020B1012053491031086003E03B
:1008A00000205149103108604A480078012800D1E1
:1008B000704749480078C0F3C00020B101204A4980
:1008C000091D086003E000204749091D08604248EF
:1008D0000078C0F3800020B1012041499C310860BC
:1008E00003E000203E499C3108603B480078C0F39B
:1008F000400020B101203C491431086003E0002091
:100900003949143108603448007800F0010020B102
:1009100001203349A031086003E000203049A031B4
:1009200008602D48407800F0030048B900202F49A6
:1009300008602F49C1F8B8012849091D086021E065
:100940002548407800F0030001280AD127490831E2
:10095000086000202649C1F8B0012049091D08603F
:1009600010E01D48407800F0030002280AD1002062
:100970001E490831086001201D49C1F8B00117491E
:10098000091D086016481038006820B90120174971
:10099000091D086003E000201449091D086000BF1C
:1009A00086E710B5FFF78BFEFFF75AFF10BD00007A
:1009B00010812342140000206175746F0D0A00003D
:1009C000150000206D616E6E65640D0A0000000068
:1009D000F8000020FA000020CD00002094012442FD
:1009E00018012342BD000020A0812142B081224293
:1009F0000080224210B504462146002004F0FDF993
:100A000010BD2DE9F843002000900024184800781C
:100A1000012808D1174800781649497840EA012092
:100A2000ADF8000007E01448C0781349097940EA9E
:100A30000120ADF80000BDF8000000EB8000C0EB25
:100A4000003043F6FF71B0FBF1F9484604F053FD66
:100A500007464FF06632094B04F0C8FB054604F028
:100A60001DFD84B22046FFF7C5FFBDE8F8830000F6
:100A7000FA000020AD000020CD00002066661A407C
:100A800070B500BF00BF0A210C2001F0A3FA054693
:100A900005EB45104000C0EB803040F6FF71B0FB25
:100AA000F1F03221B0FBF1F084B22012014908715B
:100AB000CC7070BDCD0000202DE9F04125480078B4
:100AC00000F00100002838D02248007820F0010012
:100AD000204908700846007820F00400087001F0F2
:100AE0003EFB1D4908800988480004F079FE8046D5
:100AF0001A4904F0A1FE0746194904F09DFE064676
:100B0000184904F099FE05464FF0824104F086FD35
:100B10000446154904F082FD14490860144913483D
:100B2000006804F07BFD044604F03AFE1149088099
:100B3000084600781049887006E00648007820F0E2
:100B40000400001D03490870BDE8F08110B5FFF7EF
:100B5000B3FF10BDF900002018000020560E4940D8
:100B60004C37893E000010420AD747411C00002044
:100B7000448BAC3E20000020CD00002010B50024A6
:100B800018480078C0F3401050B31648007820F0A1
:100B9000200014490870144802F03BFF13490880F4
:100BA0000988134A1288891A4FF4616201FB02F026
:100BB000C11700EB9171891041F2883291FBF2F17B
:100BC00001F5B47164225143242291FBF2F18CB2FD
:100BD000200A084948700C700448008804490880BD
:100BE00010BD000040000020002C01402200002029
:100BF00024000020DD00002010B500244B480068D0
:100C00004B490968884205D14A4800684A49096841
:100C1000884222D046480068444908604648006837
:100C2000444908604148006842F21071484348F660
:100C30009F41B0FBF1F4200A404948710C713D48D6
:100C4000006842F210714843491EB0FBF1F4481CA1
:100C5000041B200A3949C8718C7139480068394928
:100C60000968884213D03748006835490860002079
:100C7000344908603248006848F69F41484342F2D0
:100C80001071B0FBF1F4200A2C4948700C702E480A
:100C900000682E490968884213D02C4800682A4908
:100CA00008600020244908602748006848F26B313A
:100CB000484342F21071B0FBF1F4200A1F49C8709A
:100CC0008C702348407800F0010068B32148007818
:100CD0002049497840EA012048F69F41484342F2C2
:100CE0001071B0FBF1F01C4988601A4880781949EE
:100CF000C97840EA012048F26B31484342F2107152
:100D0000B0FBF1F01449C8600846008981B213486D
:100D100002F060FE1048808981B24FF0804002F0FE
:100D20005DFE01200E49087010BD0000300000205B
:100D3000500000203C00002078000020D50000205A
:100D40003400002064000020380000208C000020C7
:100D5000BD000020B5000020180100200008004060
:100D60002800002008B54FF40050ADF80000102016
:100D70008DF8030003208DF8020069460A4801F04F
:100D800041FC4FF40051084801F0EBFC08BD074856
:100D90000078C0F3800018B101200549086002E026
:100DA0000020034908607047001001404000002007
:100DB000B40122427FB505460C46ADF80850ADF8A7
:100DC00004400020ADF80A00ADF8060001A9FE4875
:100DD00002F00CF801221146FB4802F07EFB36209F
:100DE0008DF8000001208DF8010003208DF802002D
:100DF00001208DF80300684601F03BFB0121F24819
:100E000002F050FB7FBD10B50121EF4802F013FE48
:100E100000287DD00121EC4802F01EFEEB4800784E
:100E2000012805D10020E9490870E94908801AE045
:100E3000E6480078B8B9E6480088401CE4490880D4
:100E400008460088B0F5FA7F0DD144F2B6114FF094
:100E5000804002F0C3FD44F25061DE4802F0BAFD6A
:100E60000220DA490870DC480078C0F34000E0B1A5
:100E7000DA480078C0F34000B8B9D9480078401C7F
:100E8000D74908700846007863280ED10020087002
:100E9000D248007820F00200801CD0490870CE486B
:100EA000007820F00200CC490870CB480078C0F3ED
:100EB000800068B1CB480088401CCA4908800846B9
:100EC0000088B0F5967F06D10020C749887002E0FF
:100ED0000020C4490880C148007800F00100D0B962
:100EE000C2480078401CC149087008460078632851
:100EF00011D1BA48007820F00100401CB7490870B1
:100F00000846007820F0200020300870002000E023
:100F100054E0B6490870B1480078C00990B9B448A7
:100F20000078401CB249087008460078142809D19E
:100F3000AA48007820F080008030A849087000207E
:100F4000AB490870AB480088401CAA490880084695
:100F5000008840F2F311884207D1A048007820F0C1
:100F60000400001D9D4908700EE0A248008840F270
:100F7000E731884208D19948007820F00400974969
:100F8000087000209B49088094480078C0F38010C6
:100F9000A0B199480078401C97490870084600782D
:100FA00062280BD18D48007820F040008B490870F2
:100FB00000209149087091494870087010BD30B503
:100FC0008DB005460C4601218D4801F0ECFB402018
:100FD000ADF8300018208DF8330002208DF8320073
:100FE0000CA9884801F00EFB8020ADF830002820C5
:100FF0008DF833000CA9834801F004FBADF82850AC
:10100000ADF824400020ADF82A00ADF8260009A96B
:101010007D4801F0EBFE7020ADF814000120ADF822
:1010200016000020ADF81A000220ADF81C0005A93A
:10103000754801F018FF0821734802F063FB042093
:10104000ADF808000020ADF80A000120ADF80C0052
:101050000020ADF80E00ADF8100002A96A4802F0B9
:1010600058F91D208DF8040001208DF805008DF839
:1010700006008DF8070001A801F0FBF90122042108
:10108000614802F02AFA01215F4802F00BFA0DB024
:1010900030BD10B55D48007800F08000002846D1D2
:1010A0000421594802F0C7FC002840D004215648CA
:1010B00002F0D2FC5548007800F0400040B352489E
:1010C00002F09DFC52490880084600885149098871
:1010D000884204DA48F69F404F49086002E0002049
:1010E0004D4908604A4800884A490988401A4A49D7
:1010F000098808444949088008460088484908602A
:1011000000204249087000213F4802F08FFB0EE0AA
:101110003D4802F074FC3F4908803C48007840F0AC
:1011200040003A4908700221374802F07FFB10BDA9
:1011300030B58DB005460C464020ADF83000182083
:101140008DF8330002208DF832000CA9354801F0EB
:1011500059FA8020ADF8300028208DF833000CA912
:10116000304801F04FFAADF82850ADF82440002087
:10117000ADF82A00ADF8260009A9164801F036FEA0
:101180007020ADF814000120ADF816000020ADF875
:101190001A000220ADF81C0005A90E4801F063FEFC
:1011A00008210C4802F0AEFA0420ADF80800002037
:1011B000ADF80A000120ADF80C000020ADF80E00DB
:1011C000ADF8100002A92FE0001000402800002018
:1011D0009E00002000080040F90000204000002090
:1011E000900000209C000020CD00002098000020EE
:1011F00099000020960000209A000020AD000020F9
:10120000000C1A00001001400004004041000020C2
:101210004400002042000020480000204C00002034
:1012200050000020000C0140FE4802F072F801213D
:10123000FC4802F037FA1E208DF8040001208DF8DA
:10124000050000208DF8060001208DF8070001A898
:1012500001F00FF901220421F24802F03EF90121C8
:10126000F04802F01FF90DB030BD10B5EE4800781F
:1012700000F08000002846D10421EA4802F0DBFBA0
:10128000002840D00421E74802F0E6FBE648007859
:1012900000F0400040B3E34802F0B1FBE3490880AE
:1012A00008460088E2490988884204DA48F69F40E7
:1012B000E049086002E00020DE490860DB48008861
:1012C000DB490988401ADB4909880844DA49088063
:1012D00008460088D94908600020D34908700021D9
:1012E000D04802F0A3FA0EE0CE4802F088FBD049C5
:1012F0000880CD48007840F04000CB4908700221BA
:10130000C84802F093FA10BD30B58DB005460C46C2
:101310000120ADF8300018208DF8330002208DF840
:1013200032000CA9C64801F06DF90220ADF830007A
:1013300028208DF833000CA9C14801F063F9ADF8FD
:101340002850ADF824400020ADF82A00ADF8260062
:1013500009A9BC4801F04AFD7020ADF81400012035
:10136000ADF816000020ADF81A000220ADF81C0000
:1013700005A9B44801F077FD0821B24802F0C2F98E
:101380000420ADF808000020ADF80A000120ADF8F7
:101390000C000020ADF80E00ADF8100002A9A9481D
:1013A00001F0B7FF32208DF8040001208DF8050010
:1013B00003208DF8060001208DF8070001A801F038
:1013C00058F8012204219F4802F087F801219D4826
:1013D00002F068F80DB030BD10B59B48007800F001
:1013E0008000002846D10421964802F024FB002802
:1013F00040D00421934802F02FFB9348007800F07E
:10140000400040B38F4802F0FAFA9049088008463D
:1014100000888F490988884204DA42F20F708D49AA
:10142000086002E000208B490860884800888849ED
:101430000988401A8749098808448749088008466E
:1014400000888649086000207F49087000217D4897
:1014500002F0ECF90EE07B4802F0D1FA7C490880FA
:101460007948007840F040007749087002217548BB
:1014700002F0DCF910BD30B58DB005460C460420F5
:10148000ADF8300018208DF8330002208DF83200BE
:101490000CA96B4801F0B6F80820ADF83000282000
:1014A0008DF833000CA9664801F0ACF8ADF828506F
:1014B000ADF824400020ADF82A00ADF8260009A9B7
:1014C0004FF0804001F092FC7020ADF81400012034
:1014D000ADF816000020ADF81A000220ADF81C008F
:1014E00005A9400701F04EFD0821C80602F020F9C9
:1014F0000C20ADF808000020ADF80A000120ADF87E
:101500000C000020ADF80E00ADF8100002A94FF05D
:10151000804001F0FEFE0121880702F0C3F81C2084
:101520008DF8040001208DF805008DF806008DF877
:10153000070001A800F09DFF01221021880601F09C
:10154000CCFF0121880701F0ADFF0DB030BD10B513
:101550004348007800F08000002849D11021880617
:1015600002F069FA002843D01021880602F074FACC
:101570003B48007800F0400050B34FF0804002F04C
:1015800044FA384908800846008837490988884263
:1015900004DA48F26B303549086002E00020334934
:1015A00008603048008830490988401A2F49098866
:1015B00008442F490880084600882E49086000200A
:1015C0002749087000214FF0804002F063F90FE0D6
:1015D0004FF0804002F019FA234908802048007833
:1015E00040F040001E4908700221480702F052F9FD
:1015F00010BD30B587B005460C4601211E4801F0EC
:10160000D2F84FF42060ADF8180004208DF81B00CC
:1016100006A91A4800F0F6FFADF81050ADF80C40DE
:1016200000202DE000080040540000205800002059
:10163000560000205C0000206000002064000020B4
:1016400000080140000C0040680000206C000020F1
:101650006A00002070000020740000207800002044
:101660007C000020800000207E00002084000020FC
:10167000880000208C000020C000160000180140E7
:10168000ADF81200ADF80E0003A96E4801F0AEFBF4
:101690000A231A4603216B4801F0B7FF684601F0A0
:1016A000E4FE0020ADF808006946664801F031FE0E
:1016B0000121644802F0BCF901221146614801F0A1
:1016C0000CFF00215F4802F081F901215D4801F023
:1016D000E9FE07B030BD30B585B005460C46802028
:1016E000ADF8100028208DF8130004A9564800F02A
:1016F00089FF8021544801F034F8ADF80850ADF866
:1017000004400020ADF80A00ADF8060001A94F48DA
:1017100001F06CFB04204E49088000204880012025
:1017200088800020C8800881484801F03DFE602183
:10173000464801F0F1FE0421444802F035F98021C9
:10174000424802F03AF91E208DF8000002208DF880
:10175000010000208DF8020001208DF8030068468A
:1017600000F087FE01220421384801F0B6FE012175
:10177000364801F097FE05B030BD30B589B005465A
:101780000C460121334801F00EF84020ADF820004E
:1017900018208DF8230003208DF8220008A92E4878
:1017A00000F030FFADF81850ADF814400020ADF84F
:1017B0001A00ADF8160005A9284801F017FB7020A3
:1017C000ADF804000120ADF806000220ADF80C00D1
:1017D00001A9224801F047FB0821204801F092FFAF
:1017E00001211E4801F05EFE09B030BD10B5472151
:1017F00040F2E730FFF7DEFA002144F61F60FFF702
:10180000F8FE012148F69F40FFF7D9FB232142F261
:101810000F70FFF779FD002148F69F40FFF788FC25
:10182000002148F26B30FFF726FE44F2B6114FF06C
:10183000804002F0D3F844F25061044802F0CAF844
:1018400010BD0000002C0140000C014000080040C9
:1018500028010020000C1A00001001400004004084
:101860002DE9F0418AB004460D4616461F46DDF8C4
:1018700040804FF48050ADF8240003208DF82600FE
:1018800018208DF8270009A9F84800F0BBFE4FF496
:101890000060ADF8240048208DF8270009A9F3481E
:1018A00000F0B0FE00208DF81E008DF81F008DF8AE
:1018B00020008DF821008DF822008DF823008DF88E
:1018C0001A808DF81B408DF81C608DF81D50ADF806
:1018D000187006A9E64802F0E0FA00208DF8120020
:1018E00001208DF813008DF814004CF28970ADF8CA
:1018F000080041F28C60ADF80A000020ADF810003D
:1019000001208DF8150002A802F051FB01208DF88E
:1019100012008DF813008DF814004CF28A70ADF8A7
:10192000080042F28C60ADF80A0046F2B770ADF8DC
:101930000C0048F65470ADF80E000020ADF8100011
:1019400001208DF8150002A802F031FB01220221CE
:10195000C74802F02BFE14208DF8040002208DF8F9
:10196000050000208DF8060001208DF8070001A871
:1019700000F07FFD01224FF40F41BD4802F016FE3A
:1019800016208DF8040002208DF8050001208DF846
:1019900006008DF8070001A800F06BFD00200AB0DA
:1019A000BDE8F08100B585B06A460021B04802F07C
:1019B000E2FCB049019888420AD19DF80A200DF155
:1019C0000B01AD4803F0F2FA0120AB49491E487201
:1019D000AA49019888420BD19DF80A200DF10B010C
:1019E000A548143003F0E2FA0121A348401E4177D4
:1019F000A349019888420AD19DF80A200DF10B01F4
:101A0000A04803F0D3FA01209E49491E487205B050
:101A100000BD2DE9F04186B00746884615460024F2
:101A200000200190029704208DF80C0000208DF812
:101A30000D008DF80E5000BF06E018F804100DF1EF
:101A40000F000155601C84B2AC42F6DB01A9884846
:101A500002F09CFB0646002401E0601C84B2314683
:101A6000834802F02BFC18B940F6FF708442F4DB87
:101A700040F6FF70844203DB012006B0BDE8F08130
:101A80000020FAE730B585B005460021784802F01D
:101A9000F5FC10B9002005B030BD6A46002174483D
:101AA00002F069FC002404E00DF10B00005D2855F4
:101AB000641C082CF8D39DF80A00ECE770B54FF4CD
:101AC00080716B4802F0DAFD012817D1684802F0F6
:101AD00067FD0646664802F05EFD0546602E01DAA7
:101AE000602D06DB6848407820F00100401C664904
:101AF00048704FF480715E4802F05BFE4FF4007155
:101B00005B4802F0BBFD012817D1594802F048FD9F
:101B10000646574802F03FFD05467F2E01DC7F2D2B
:101B200006DD5948407820F00200801C5649487074
:101B30004FF400714E4802F03CFE4FF480614C4877
:101B400002F09CFD01280BD14F48407820F00400A2
:101B5000001D4D4948704FF48061454802F029FE50
:101B60004FF40061424802F089FD01283ED140480F
:101B700002F00BFD0446012C06D14348007820F00A
:101B80000200801C40490870022C06D13E480078B3
:101B900020F00400001D3C490870032C06D13A488F
:101BA000007820F00800083037490870042C06D16E
:101BB0003548007820F01000103033490870052CAB
:101BC00006D13148007820F0200020302E490870DE
:101BD000062C06D12C48007820F0400040302A49DD
:101BE00008704FF40061224802F0E3FD70BD08B5B3
:101BF0002548407800F0010040B12348407820F0AB
:101C000001002149487021A003F0C4F91E48407822
:101C1000C0F3400040B11C48407820F002001A494F
:101C200048701EA003F0B6F917484078C0F3800052
:101C300078B11548407820F004001349487000201E
:101C40001823022201210090FFF70AFE17A003F0DB
:101C5000A1F90D480078C0F3400030B10A4800787F
:101C600020F002000849087026E028E00008014042
:101C700000640040D122F11833010020D144F11852
:101C8000EAF1F60C5B010020ED00002043414E5FBD
:101C900049545F4557470D0A0000000043414E5F1D
:101CA00049545F4550560D0A000000006275736F7D
:101CB00066660D0A0000000024A003F06BF92B48B3
:101CC0000078C0F3800040B12848007820F004007C
:101CD0002649087026A003F05DF924480078C0F377
:101CE000C00040B12148007820F008001F4908706A
:101CF00025A003F04FF91D480078C0F3001040B153
:101D00001A48007820F010001849087024A003F049
:101D100041F916480078C0F3401040B113480078EC
:101D200020F020001149087025A003F033F90F4876
:101D30000078C0F3801040B10C48007820F04000DB
:101D40000A49087026A003F025F908BD43414E5FFB
:101D50004572726F72436F64655F53747566664552
:101D600072725F466C61670D0A000000ED00002092
:101D700043414E5F4572726F72436F64655F466F99
:101D8000726D4572720D0A0043414E5F4572726F6B
:101D900072436F64655F41434B4572720D0A0000E8
:101DA00043414E5F4572726F72436F64655F426973
:101DB000745265636573736976654572720D0A00C6
:101DC00043414E5F4572726F72436F64655F426953
:101DD00074446F6D696E616E744572720D0A000015
:101DE00043414E5F4572726F72436F64655F435249
:101DF000434572720D0A000070B505460C4645F267
:101E0000555002F029FD284602F029FD204602F037
:101E100029FD02F02AFD02F02DFD70BD10B502F083
:101E200024FD10BD08B54FF44C50ADF80000102053
:101E30008DF8030003208DF802006946364800F053
:101E4000E1FB4FF44C51344800F08BFC4FF4C040A0
:101E5000ADF8000010208DF8030003208DF802007B
:101E600069462E4800F0CEFB4FF4C0412B4800F0ED
:101E700078FC4FF4E040ADF8000010208DF803002E
:101E800003208DF802006946254800F0BBFB4FF4A3
:101E9000E041234800F065FC6020ADF80000102010
:101EA0008DF8030003208DF8020069461D4800F0FC
:101EB000A9FB60211B4800F054FC7C20ADF8000019
:101EC00028208DF803006946144800F09BFB1F2072
:101ED000ADF8000028208DF803006946124800F094
:101EE00091FB08BD08B54FF48070ADF800004820A4
:101EF0008DF8030069460B4800F084FB08BD08B567
:101F00004FF42060ADF8000048208DF803006946CA
:101F1000024800F077FB08BD000C014000180140AA
:101F20000014014000200140001C014000B587B0B2
:101F30004FF4004000F086FD0420ADF804000020BE
:101F40008DF8070001A92F4800F05CFB2E4802F035
:101F5000A3FC002002908DF80C008DF80D004FF4CA
:101F6000602004900020059001208DF8180002A93F
:101F7000254802F0B8FC0121234802F0E0FC224889
:101F800002F0FFFC00BF204802F000FD0028FAD15B
:101F90001D4802F005FD00BF1B4802F006FD0028A9
:101FA000FAD107B000BD10B504460723012221462F
:101FB000154802F030FD0121134802F000FD00BF7A
:101FC0000221114802F06CFE0028F9D00E4802F000
:101FD00089FD10BD2DE9F04107460C46002500267D
:101FE00008E03846FFF7DFFF0544012000F003F961
:101FF000701CC6B2A642F4DBB5FBF4F080B2BDE8BB
:10200000F0810000001001400024014000B585B0BF
:102010001020ADF8100000208DF8130003208DF87B
:10202000120004A9214800F0EDFA10211F4800F029
:1020300098FB0020009001900290022003906946D6
:10204000002002F05CFE0121002002F075FE00215C
:10205000084602F0D2FE05B000BD2DE9F047044667
:10206000204603F0D5FB81461149484603F0D6FAD5
:1020700081464FF08B41484603F0DEFB824603F079
:10208000A1FA07464FF066320A4B03F0AFF8054657
:1020900003F07AF88146484603F082FB85B2294670
:1020A000002002F0AAFEBDE8F08700000008014011
:1020B00000007A4466660A400EB50821062000F04A
:1020C000B7FB4FF48070019000208DF808000820C5
:1020D0008DF8090001208DF80A0001A802F0D8FE51
:1020E00017208DF8000002208DF801008DF8020005
:1020F00001208DF80300684600F0BBF90EBD10B555
:102100004FF4807002F02AFF40B31848007820F0A6
:102110000200801C1549087015480078C0F3400083
:1021200098B114480088144908800020114908809B
:102130000F48007820F002000D4908700B48007825
:1021400020F00100401C094908700A480088401C22
:10215000084908804FF4807002F011FF10BD002084
:10216000054908780021044A11807047F9000020D1
:1021700040000020F2000020F000002010B56FF0B9
:10218000040000F0C0F92E4800682E49B0FBF1F0C1
:102190002D4908700846007800EB4001C1EBC010E3
:1021A0004FF6FF7101EAC0002849088010BD0146C2
:1021B000254A12784A434FF0E0235A6100229A617F
:1021C0001A46126942F001021A6100BF4FF0E02284
:1021D000106900F001021AB100F48032002AF5D033
:1021E0004FF0E022126922F001024FF0E0231A6161
:1021F00000229A6170470146144A12884A434FF000
:10220000E0235A6100229A611A46126942F00102E3
:102210001A6100BF4FF0E022106900F001021AB10C
:1022200000F48032002AF5D04FF0E022126922F04B
:1022300001024FF0E0231A6100229A61704700000A
:102240000000002000127A00F4000020F6000020B8
:1022500030BF704772B6704762B6704710B5012143
:102260001B4800F098FC012147F6FD3000F086FC89
:1022700010BD08B5FFF7F2FFFFF780FF4FF4A06035
:1022800000F0F2F84FF4E13000F041F8002018239C
:10229000022201210090FFF7E3FA40F2E24104201C
:1022A000FFF7AAFDFFF7A2FAFEF75CFDFFF71AFEA3
:1022B000FFF73CFEFFF7AAFEFFF7FEFEFFF7B2FDB9
:1022C000FEF7DCF90349087003A002F063FE08BDC5
:1022D0003F000022FA00002073797374656D206955
:1022E0006E69742066696E6973680D0A00000000EB
:1022F000014600BF704700BF474A128802F0400203
:10230000002AF9D0C2B2444B1B1D1A80704710B589
:1023100086B004464FF40070ADF8140003208DF829
:10232000160018208DF8170005A93C4800F06AF93E
:102330004FF48060ADF8140004208DF8170005A953
:10234000364800F05FF925208DF8000003208DF855
:1023500001008DF8020001208DF80300684600F0AE
:1023600088F801940020ADF80800ADF80A00ADF837
:102370000C00ADF810000C20ADF80E0001A92648A5
:1023800001F0B1FB012240F22551234801F043FC4A
:102390000121214801F033FC06B010BD10B540F218
:1023A00025511D4801F01CFD10B31B4801F098FC9D
:1023B000C4B21B48008800F40040C8B9184800881F
:1023C00000F4804060B10A2C03D00020144908803A
:1023D00020E01348008840F400401149088019E0CB
:1023E0000D2C06D10E48008840F480400C4908802E
:1023F00010E00B480088C0F30D000A490C5408484F
:102400000088401C0649088008460088C72801DD6E
:102410000020088010BD0000003801400008014085
:1024200000010020A001002009488047094800471A
:10243000FEE7FEE7FEE7FEE7FEE7FEE7FEE7FEE774
:10244000FEE7FEE704480549054A064B70470000D1
:102450000703000831010008C8020020C808002056
:10246000C8040020C804002031490143314A1160EA
:10247000704770B5002100230F22C47804B32D4C9F
:10248000246804F4E064C4F5E064210AC1F10403A3
:10249000CA40447804FA03F18478144021430901C6
:1024A000254C0678A155047804F01F050124AC40A2
:1024B00005786D11AD0005F1E025C5F8004109E092
:1024C000047804F01F050124AC401C4D06787611F9
:1024D00045F8264070BD1A4A0A400243154B1B1F9F
:1024E0001A60704739B1134A121D12680243114B2A
:1024F0001B1D1A6006E00F4A121D126882430D4B25
:102500001B1D1A607047042808D14FF0E0210969AB
:1025100041F004014FF0E022116107E04FF0E021AB
:10252000096921F004014FF0E022116170470000B9
:102530000000FA050CED00E000E400E080E100E0BE
:1025400080FFFF1F10B50446CC48844208D101210A
:10255000042000F02DFB0021042000F029FB46E0C0
:10256000C748844208D10121082000F021FB002146
:10257000082000F01DFB3AE0C248844208D1012146
:10258000102000F015FB0021102000F011FB2EE0C0
:10259000BD48844208D10121202000F009FB002120
:1025A000202000F005FB22E0B848844208D1012138
:1025B000402000F0FDFA0021402000F0F9FA16E07A
:1025C000B348844208D10121802000F0F1FA0021B3
:1025D000802000F0EDFA0AE0AE48844207D10121E4
:1025E000801500F0E5FA0021A01500F0E1FA10BD19
:1025F00010B50121084600F0DBFA0021012000F0AF
:10260000D7FA10BD2DE9F041024600250026002032
:1026100000230024002791F803C00CF00F0591F867
:1026200003C00CF0100CBCF1000F03D091F802C0F5
:102630004CEA050591F800C0BCF1000F31D01468D8
:1026400000202BE04FF0010C0CFA00F3B1F800C0B1
:102650000CEA03069E4220D183004FF00F0C0CFAC7
:1026600003F7BC4305FA03FC4CEA040491F803C0E9
:10267000BCF1280F06D14FF0010C0CFA00FCC2F897
:1026800014C00AE091F803C0BCF1480F05D14FF027
:10269000010C0CFA00FCC2F810C0401C0828D1D371
:1026A0001460B1F800C0BCF1FF0F34DD54680020A5
:1026B0002EE000F1080C4FF0010808FA0CF3B1F815
:1026C00000C00CEA03069E4221D183004FF00F0C9C
:1026D0000CFA03F7BC4305FA03FC4CEA040491F836
:1026E00003C0BCF1280F05D100F1080C08FA0CF862
:1026F000C2F8148091F803C0BCF1480F07D100F173
:10270000080C4FF0010808FA0CF8C2F81080401CC1
:102710000828CED35460BDE8F0814FF6FF710180E8
:10272000022181700421C170704702460020936825
:102730000B400BB1012000E0002070470146886883
:1027400080B2704702460020D3680B400BB10120D5
:1027500000E0002070470146C86880B27047016100
:102760007047416170470AB1016100E04161704703
:10277000C16070474FF480320A4382618161826197
:1027800082698269704702460020434B18684FF601
:102790008073184040EA021008433F4B18607047AE
:1027A0003E49C8617047F0B50A4600230024002165
:1027B000002500F00046B6F1004F02D1364EF16917
:1027C00001E0354E7168C0F3034583B200F4401652
:1027D000B6F5401F08D121F070612F4E766826F0C3
:1027E00070662D4F7E6012E000F48016B6F5801FF3
:1027F00006D1032606FA05F4A14341F0706106E014
:10280000460D360103FA06F6B14341F0706122B17C
:10281000460D360103FA06F6314300F00046B6F1E4
:10282000004F02D11C4EF16101E01B4E7160F0BD02
:1028300030B500228B071C0F0F2303FA04F2164B4E
:1028400008338C1053F824309343134C08348D1004
:1028500044F8253023468C1053F824308C07240F7D
:1028600000FA04F423430C4C08348D1044F825304E
:1028700030BD0A49DC3108607047000000080140A3
:10288000000C0140001001400014014000180140FC
:10289000001C0140002001400000014000002042D7
:1028A000DF48006840F00100DD49086008464068E4
:1028B000DC490840DA49486008460068DA490840BF
:1028C000D74908600846006820F480200860084660
:1028D000406820F4FE0048604FF41F008860704795
:1028E000CF49096821F48031CD4A11601146096849
:1028F00021F480211160B0F5803F03D0B0F5802F26
:102900000ED106E0C649096841F48031C44A11601D
:1029100007E0C349096841F4A021C14A116000E001
:1029200000BF00BF704710B5014600220023002001
:102930004A11012A02D1BA4C236806E0022A02D1C8
:10294000B74C236A01E0B64C636A01F01F02012410
:1029500094401C400CB1012000E0002010BD38B5AF
:10296000002000900024002500BF3120FFF7DBFF8E
:1029700005460098401C00900098B0F5A06F01D06B
:10298000002DF2D03120FFF7CEFF08B1012400E086
:102990000024204638BD01460020A14A106820F0DE
:1029A000F80040EAC10010607047A0490860704715
:1029B000024600209A4B586820F47C1042EA01033A
:1029C0001843974B5860704798490866704701460E
:1029D0000020934A506820F003000843506070477D
:1029E0008F48406800F00C007047014600208C4A78
:1029F000506820F0F0000843506070470146002006
:102A0000874A506820F4E0600843506070470146F0
:102A10000020834A506820F4605040EAC1005060B2
:102A2000704729B17E4A527A02437D4B5A7204E0C4
:102A30007B4A527A82437A4B5A7270477B49D8312B
:102A40000860704701460020754A506820F44040F5
:102A50000843506070470021714A20321170704A5B
:102A600082F82010012802D004280AD104E00121B4
:102A70006B4A2032117005E00521694A203211703D
:102A800000E000BF00BF70476949086070476449B3
:102A9000096A0143624A1162704765494439086016
:102AA000704730B500210022002400235C4D6D6882
:102AB00005F00C0121B1042905D0082923D105E036
:102AC0005C4D056022E05B4D05601FE0544D6D6874
:102AD00005F47012524D6D6805F48034022505EB43
:102AE00092421CB9544D554305600BE04C4D6D6846
:102AF00005F400351DB1504D5543056002E04D4DC4
:102B00005543056002E04B4D056000BF00BF444DDA
:102B10006D6805F0F0010909484D6B5C0568DD4002
:102B200045603F4D6D6805F4E061090A434D6B5CFB
:102B30004568DD4085603A4D6D6805F46051C90A0D
:102B40003E4D6B5C4568DD40C560354D6D6805F4F4
:102B50004041890B3A4D6B5CC568B5FBF3F50561E7
:102B600030BD29B12E4A526902432D4B5A6104E00F
:102B70002B4A526982432A4B5A61704729B1284A2D
:102B800092690243264B9A6104E0254A9269824386
:102B9000234B9A61704729B1214AD2690243204BE5
:102BA000DA6104E01E4AD26982431D4BDA61704744
:102BB00029B11B4AD2680243194BDA6004E0184A73
:102BC000D2688243164BDA60704729B1144A126901
:102BD0000243134B1A6104E0114A12698243104BFD
:102BE0001A61704712494039086070470F49C8643C
:102BF00070470B49C87170470948406A40F08070BF
:102C000007494862704701460020054A92680A4019
:102C10000AB1012000E00020704701498872704726
:102C2000001002400000FFF8FFFFF6FE00004242E5
:102C30008004424200127A0000093D000201002097
:102C40001201002010B50446FE48844208D101213B
:102C5000C014FFF7ADFF0021E014FFF7A9FFC4E0A7
:102C6000B4F1804F08D101210846FFF7AEFF0021E3
:102C70000120FFF7AAFFB8E0F348844208D1012100
:102C80000220FFF7A2FF00210220FFF79EFFACE029
:102C9000EE48844208D101210420FFF796FF00216D
:102CA0000420FFF792FFA0E0E948844208D1012107
:102CB0000820FFF78AFF00210820FFF786FF94E035
:102CC000E448844208D101211020FFF77EFF002153
:102CD0001020FFF77AFF88E0DF48844208D1012105
:102CE0002020FFF772FF00212020FFF76EFF7CE01D
:102CF000DA48844208D101214014FFF759FF00212E
:102D00006014FFF755FF70E0D548844209D10121D6
:102D1000C804FFF74DFF00214FF40020FFF748FFE4
:102D200063E0D048844209D101210805FFF740FF44
:102D300000214FF48010FFF73BFF56E0CA48844261
:102D400009D101214805FFF733FF00214FF400109E
:102D5000FFF72EFF49E0C548844208D101214020F9
:102D6000FFF733FF00214020FFF72FFF3DE0C04871
:102D7000844208D101218020FFF727FF0021802015
:102D8000FFF723FF31E0BB48844208D101218015C1
:102D9000FFF71BFF0021A015FFF717FF25E0B6483E
:102DA000844209D101210804FFF702FF00214FF4FA
:102DB0008030FFF7FDFE18E0B048844209D10121C0
:102DC0004804FFF7F5FE00214FF40030FFF7F0FE56
:102DD0000BE0AB48844208D101218804FFF7E8FEEC
:102DE00000214FF48020FFF7E3FE10BD002202888F
:102DF000944B98420ED0994B98420BD0B0F1804F33
:102E000008D0914B984205D0904B984202D0904BFD
:102E1000984204D14FF68F731A404B881A438D4B5A
:102E2000984207D08C4B984204D04FF6FF431A408B
:102E3000CB881A4302808B8883850B880385814B5E
:102E400098420BD0854B984208D08B4B984205D0C6
:102E50008A4B984202D08A4B984201D10B7A038662
:102E600001238382704770B5002400220023058C63
:102E70004FF6FE7635400584028C8388048B4FF62E
:102E80008F752C40B51E2C400D882C43751E2A4092
:102E90000D892A434D882A436A4DA8420BD06F4DB5
:102EA000A84208D0744DA84205D0744DA84202D063
:102EB000734DA84213D14FF6F7752A404D892A4326
:102EC0004FF6FB752A408D882A434FF6FF652B404D
:102ED0004FF6FF552B408D892B43CD892B438380A3
:102EE0000483CD888586028470BD70B500240022DD
:102EF0000023058C4FF6EF7635400584028C8388DD
:102F0000048B48F6FF752C404FF6FF452C400D888A
:102F10004FF6FF7606EA05252C434FF6DF752A406B
:102F20000D8906EA05152A434D8806EA05152A4348
:102F3000444DA84202D0494DA8421DD14FF67F759D
:102F40002A404D894FF6FF7606EA05152A434FF6CB
:102F5000BF752A408D8806EA05152A434FF6FF35CE
:102F60002B404FF2FF752B408D8906EA85052B43D8
:102F7000CD8906EA85052B4383800483CD880587A8
:102F8000028470BD70B5002400220023058C4FF62A
:102F9000FF6635400584028C8388848B4FF68F75DD
:102FA0002C404FF6FC752C400D882C434FF6FF55F6
:102FB0002A400D894FF6FF7606EA05252A434D88FB
:102FC00006EA05252A431F4DA84202D0234DA842F8
:102FD0001DD14FF2FF752A404D894FF6FF7606EA64
:102FE00005252A434FF6FF352A408D8806EA052538
:102FF0002A434EF6FF752B404DF6FF752B408D8909
:1030000006EA05152B43CD8906EA05152B43838077
:103010008483CD888587028470BD70B5002200232B
:103020000024058C4EF6FF7635400584038C848899
:10303000828B48F6FF752A404FF6FF452A400D88DF
:1030400020E00000002C0140000400400008004087
:10305000000C00400010004000140040003401400B
:10306000004C014000500140005401400018004055
:10307000001C00400020004000400140004401408E
:10308000004801404FF6FF7606EA05252A434DF633
:10309000FF752B400D8906EA05352B434D8806EA5E
:1030A00005352B43FA4DA84202D0FA4DA84208D16B
:1030B0004BF6FF752C408D894FF6FF7606EA851595
:1030C0002C4384808283CD88A0F84050038470BD57
:1030D000828B4FF2FF331A408283828B4FF6FF734D
:1030E00003EA01231A4382837047F0B50C46154664
:1030F000002200210026078C4EF6FF7C07EA0C0711
:103100000784828B018C4FF6FF7707EA043640F67E
:10311000FF473A404FF6FF7707EA05273A434FF655
:10312000FF7707EA03373A43D94FB8420ED0D94F59
:10313000B8420BD0B0F1804F08D0D74FB84205D07D
:10314000D64FB84202D0D64FB84206D14DF6FF77DF
:10315000394046F48057394305E047F6FF57394078
:1031600044F48057394382830184F0BD828B4FF64B
:10317000F3731A408283828B0A4382837047F0B5CF
:103180000C461546002200210026078C4FF6FF6CE6
:1031900007EA0C070784828B018C4FF6FF7707EA5A
:1031A00004264FF60C773A404FF6FF7707EA0317ED
:1031B0002F433A43B64FB8420ED0B64FB8420BD069
:1031C000B0F1804F08D0B44FB84205D0B34FB842E9
:1031D00002D0B34FB84206D14FF6FF57394046F4FC
:1031E0008077394305E04FF2FF57394044F4807748
:1031F000394382830184F0BD028B4FF2FF331A40C2
:103200000283028B4FF6FF7303EA01231A43028302
:103210007047F0B50C461546002200210026078CA9
:103220004FF6EF7C07EA0C070784028B018C4FF600
:10323000FF7707EA041640F6FF473A404FF6FF775C
:1032400007EA03373A434FF6FF7707EA05273A4381
:103250008F4FB8420ED08F4FB8420BD0B0F1804F95
:1032600008D08D4FB84205D08C4FB84202D08C4F59
:10327000B84206D14FF6DF77394046F010073943A0
:1032800005E04FF65F77394044F010073943028379
:103290000184F0BD028B4FF6F3731A400283028B58
:1032A0000A4302837047F0B50C4615460022002100
:1032B000068C4FF6FE773E400684028B018C4FF65B
:1032C0000C7632407E1C06EA03162E433243704EC3
:1032D000B0420ED06F4EB0420BD0B0F1804F08D04C
:1032E0006D4EB04205D06D4EB04202D06C4EB04231
:1032F00006D14FF6FD76314044F00106314305E03A
:103300004FF6F576314044F00106314302830184E3
:10331000F0BD70B505460C465D4885420ED05D484F
:1033200085420BD0B5F1804F08D05B48854205D06F
:103330005A48854202D05A48854200D100E000BF79
:10334000208850B92389A28861882846FFF7ABFFFF
:10335000E1882846FFF79EFF25E0208804280AD14F
:103360002389A28861882846FFF753FFE188284611
:10337000FFF742FF17E0208808280AD12389A28896
:1033800061882846FFF7FBFEE1882846FFF7EEFE3E
:1033900009E02389A28861882846FFF7A6FEE18814
:1033A0002846FFF795FE70BD2DE9F04105460C4615
:1033B00000260127608808B9022600E00026A088C0
:1033C000012801D1022700E001272088A0B9238924
:1033D000A28861882846FFF766FFE1882846FFF744
:1033E00059FF23893A4631462846FFF712FFE18804
:1033F0002846FFF701FF13E02389A2886188284649
:10340000FFF707FFE1882846FFF7F6FE23893A46D3
:1034100031462846FFF747FFE1882846FFF73AFF85
:10342000BDE8F0810A884B881A438B881A43CB8801
:103430001A430B891A434B891A438B891A43A0F804
:10344000442070474FF6FF71818000210180C180C8
:103450004180017270470021018041808180C180DC
:10346000018141818181C1817047002101804180BA
:10347000012181800021C1800181704700210180EC
:1034800041808180C180018141818181704700003C
:10349000002C0140003401400004004000080040BE
:1034A000000C004021B1028842F00102028004E0D9
:1034B00002884FF6FE731A400280704731B1B0F8AF
:1034C000442042F40042A0F8442005E0B0F8442033
:1034D000C2F30E02A0F8442070471AB183890B434F
:1034E000838102E083898B438381704781827047A7
:1034F00041EA0203A0F8483070471AB183890B43B0
:10350000838102E083898B438381704701894FF671
:10351000F8721140018170470A46002101894FF677
:103520008F73194011430181704730B504460D4631
:1035300029462046FFF7F0FF208940F00700208150
:1035400030BD2DE9F04104460D4616461F46602D5C
:1035500006D13B46012231462046FFF75AFE05E0E0
:103560003B46012231462046FFF79DFE2946204674
:10357000FFF7D2FF208940F007002081BDE8F081ED
:1035800030B50C4600210189C9B24FF6FF7505EA36
:103590000325154325432943018130BD2DE9F04121
:1035A00005460E4617469846002443463A4631469D
:1035B0002846FFF7E5FF2C894FF6F870044044F0E9
:1035C00007044FF68F70044044F070042C81BDE86E
:1035D000F081F0B504460D4616461F463B4632467E
:1035E00029462046FFF7CCFF208940F48040208107
:1035F000F0BD0185828270470A46002101884FF69E
:103600008F731940114301807047F0B50C46154681
:103610001E460021002200230189028B038C4FF6F5
:10362000F877394021434FF6FC473A4040F2011702
:103630003A434FF6DD773B404FF6FF7707EA061730
:103640002F433B43018102830384F0BD0A460021DE
:10365000018B4FF68F7319401143018370470A465F
:103660000021018B48F6FF7319404FF6FF7303EA00
:1036700002231943018370470A460021818B4FF6CC
:103680008F7319401143818370470A460021818B53
:1036900048F6FF7319404FF6FF7303EA02231943FC
:1036A0008183704721B1028842F08002028004E0E9
:1036B00002884FF67F731A400280704721B18288DA
:1036C00042F00402828004E082884FF6FB731A40C5
:1036D0008280704721B1828842F00802828004E033
:1036E00082884FF6F7731A408280704721B1828832
:1036F00042F00102828004E082884FF6FE731A4095
:10370000828070470A460021018B4FF6F7731940FB
:103710001143018370470A460021018B4FF2FF736A
:1037200019404FF6FF7303EA0223194301837047E0
:103730000A460021818B4FF6F773194011438183AC
:1037400070470A460021818B4FF2FF7319404FF6F4
:10375000FF7303EA02231943818370470A4600215D
:10376000018B4FF6FB7319401143018370470A46E2
:103770000021018B4FF6FF3319404FF6FF7303EA28
:1037800002231943018370470A460021818B4FF6BB
:10379000FB7319401143818370470A460021818BD6
:1037A0004FF6FF3319404FF6FF7303EA0223194324
:1037B000818370470A460021018B4FF67F731940C1
:1037C0001143018370470A460021018BC1F30E01AA
:1037D0004FF6FF7303EA02231943018370470A4639
:1037E0000021818B4FF67F7319401143818370470D
:1037F0000A460021818BC1F30E014FF6FF7303EAE5
:1038000002231943818370470A460021018C4FF639
:10381000FD7319401143018470470A460021018C51
:103820004FF6F77319401143018470470A4600218F
:10383000018C4FF6DF7319404FF6FF7303EA021352
:103840001943018470470A460021018C4FF67F73AB
:1038500019404FF6FF7303EA0213194301847047BE
:103860000A460021018C4FF6FF5319404FF6FF73B3
:1038700003EA02231943018470470A460021018CA0
:103880004FF2FF7319404FF6FF7303EA0223194307
:10389000018470470A460021018C4DF6FF731940E0
:1038A0004FF6FF7303EA023319430184704730B5C2
:1038B000002301248C40A3B2048C9C430484048C18
:1038C00002FA01F5ADB22C43048430BD30B50023BB
:1038D00004248C40A3B2048C9C430484048C02FA1C
:1038E00001F5ADB22C43048430BD70B50346002011
:1038F00000241846183001258D40ACB21D8CA5431C
:103900001D8409B1082909D100EB6100056825F083
:10391000700505600568154305600EE00D1FC5F3D1
:103920004E052844056825F4E045056005684FF616
:10393000FF7606EA02263543056070BD21B1028894
:1039400042F00202028004E002884FF6FD731A4042
:103950000280704721B1028842F00402028004E034
:1039600002884FF6FB731A400280704721B18288AB
:1039700042F08002828004E082884FF67F731A4012
:103980008280704702884FF6F7731A4002800288DF
:103990000A430280704782884FF68F731A408280F4
:1039A00082880A438280704702894FF6F8731A4072
:1039B000028102890A430281704702894FF67F73B0
:1039C0001A40028102890A4302817047818470474C
:1039D000818570478186704701877047818770476E
:1039E000A0F84010704702884FF6FF431A4002804B
:1039F00002880A43028070470146888E704701465C
:103A0000088F70470146888F70470146B1F8400023
:103A100070470146888C70470146088D7047024602
:103A20000020138A0B400BB1012000E000207047FA
:103A3000CA430282704730B50246002000230024AA
:103A4000158A05EA0103958905EA010413B10CB151
:103A5000012000E0002030BDCA4302827047000010
:103A600010B50446FB48844209D101218803FFF7C1
:103A70009FF800214FF48040FFF79AF832E0F648B3
:103A8000844209D101214804FFF79FF800214FF437
:103A90000030FFF79AF825E0F048844209D101216F
:103AA0008804FFF792F800214FF48020FFF78DF88B
:103AB00018E0EB48844209D10121C804FFF785F8DA
:103AC00000214FF40020FFF780F80BE0E548844226
:103AD00008D101210805FFF778F800214FF4801084
:103AE000FFF773F810BD2DE9F04786B005460E4686
:103AF0000024A24600BFA1460027B08900B100BF44
:103B00002F462C8A4CF6FF700440F08804432C8228
:103B1000AC894EF6F3100440B088318908437189AE
:103B200008430443AC81AC8A4FF6FF400440B0899F
:103B30000443AC8201A8FEF7B4FFC648874202D115
:103B4000DDF810A001E0DDF80CA0A88900F4004029
:103B500040B10AEBCA0000EB0A1031684900B0FB23
:103B6000F1F807E00AEBCA0000EB0A10316889009F
:103B7000B0FBF1F86420B8FBF0F0040120096421E7
:103B800001FB1089A88900F4004040B1322000EB0D
:103B9000C900B0FBF1F000F00700044308E0322058
:103BA00000EB09106421B0FBF1F000F00F000443BA
:103BB0002C8106B0BDE8F0874FF41651016000215A
:103BC0008180C18001810C21418100218181704768
:103BD00010B502460020108A4FF2FF0318400B88F0
:103BE0004C8823438C882343CC882343184310827A
:103BF00010BD0021018041808180C180704721B1CA
:103C0000828942F40052828104E082894DF6FF737A
:103C10001A4082817047F0B5034600240026002533
:103C2000002040F66A17B94200D100BF1846C1F320
:103C3000421401F01F06012707FA06F5012C01D1F5
:103C40000C3004E0022C01D1103000E014301AB125
:103C500007682F43076002E00768AF430760F0BDC5
:103C60001AB1838A0B43838202E0838A8B43838267
:103C70007047028A4FF6F0731A400282028A0A43A2
:103C80000282704782894FF2FF731A4082818289D3
:103C90000A438281704721B1828942F00202828107
:103CA00004E082894FF6FD731A4082817047028AD0
:103CB0004FF6DF731A400282028A0A43028270477B
:103CC00021B1028A42F48042028204E0028A4BF669
:103CD000FF731A4002827047C1F308028280704766
:103CE00001468888C0F308007047818941F00101CE
:103CF00081817047028BD2B20283028B42EA012299
:103D000002837047028B02F47F420283028B0A43D4
:103D10000283704721B1828A42F02002828204E04D
:103D2000828A4FF6DF731A408282704721B1828AFD
:103D300042F01002828204E0828A4FF6EF731A404A
:103D40008282704721B1828A42F00802828204E0B6
:103D5000828A4FF6F7731A408282704721B18289B6
:103D600042F40042828103E08289C2F30E02828122
:103D7000704721B1828A42F40062828204E0828A22
:103D80004FF2FF731A4082827047828A4FF6FB73AC
:103D90001A408282828A0A438282704721B1828AD3
:103DA00042F00202828204E0828A4FF6FD731A40DA
:103DB0008282704702460020B1F5007F00D100BF2B
:103DC00013880B400BB1012000E00020704701F484
:103DD0000072B2F5007F00D100BFCA430280704775
:103DE00070B50246002400230025002040F66A1624
:103DF000B14200D100BFC1F3421501F01F030126FB
:103E000006FA03F3012D02D19689334006E0022D14
:103E100002D1168A334001E0968A33400C12012603
:103E200006FA04F41688344013B10CB1012000E006
:103E3000002070BD10B50022002340F66A14A14294
:103E400000D100BF0A1201249440A3B2DC430480D5
:103E500010BD000000380140004400400048004010
:103E6000004C00400050004010B50446FE4884421B
:103E700009D101214806FEF7A8FE00214FF000708D
:103E8000FEF7A3FE08E001218806FEF79EFE002152
:103E90004FF08060FEF799FE10BD30B5024600205D
:103EA0000023146824F002041460146844F0010430
:103EB000146000E05B1C546804F001041CB94FF668
:103EC000FF74A342F6D1546804F001040CB9002039
:103ED0006CE08C79012C04D1146844F080041460E7
:103EE00003E0146824F080041460CC79012C04D120
:103EF000146844F04004146003E0146824F04004A3
:103F000014600C7A012C04D1146844F0200414606D
:103F100003E0146824F0200414604C7A012C04D1CE
:103F2000146844F01004146003E0146824F01004D2
:103F300014608C7A012C04D1146844F008041460D5
:103F400003E0146824F008041460CC7A012C04D136
:103F5000146844F00404146003E0146824F00404BA
:103F600014608C78A407CD7844EA05640D7944EA9E
:103F700005444D7944EA05540D886D1E2C43D461E7
:103F8000146824F001041460002300E05B1C5468F2
:103F900004F001041CB14FF6FF74A342F6D154683B
:103FA00004F001040CB1002000E0012030BD10B588
:103FB0000021837A012202FA03F1AC4A126842F02E
:103FC0000102AA4B1A60A94A1C3212688A43A74B05
:103FD0001C331A60027BCAB9A44A0C3212688A43A5
:103FE000A24B0C331A604288C38842EA03439F4ABB
:103FF0004032847A42F834300288838842EA0343AC
:104000009A4A4032847A02EBC4025360027B012A4E
:1040100019D1964A0C3212680A43944B0C331A6039
:104020004288038842EA0343904A4032847A42F845
:104030003430C288838842EA03438C4A4032847A0F
:1040400002EBC4025360C27A3AB9884A121D126860
:104050008A43864B1B1D1A6006E0844A121D1268B3
:104060000A43824B1B1D1A60028932B97F4A1432FF
:1040700012688A437D4B14331A600289012A06D1E3
:104080007A4A143212680A43784B14331A60427B1E
:10409000012A06D1754A1C3212680A43734B1C333D
:1040A0001A60724A126822F00102704B1A6010BD49
:1040B00000218171C171017241728172C17281707E
:1040C000C1700321017102214171012101807047FA
:1040D0006649096841F00101644A116011460968A6
:1040E00043F60E729143614A11601146096841EA34
:1040F000002111601146096821F00101116070472B
:1041000021B1026842F48032026003E0026822F4C6
:10411000803202607047E1B1026842F080020260C2
:104120004FF4C272125842F480734FF4C2721350AB
:104130004FF4CA72125842F480734FF4CA7213508B
:104140004FF4D272125842F480734FF4D27213506B
:104150001BE0026822F0800202604FF4C272125823
:1041600022F480734FF4C27213504FF4CA72125883
:1041700022F480734FF4CA7213504FF4D272125863
:1041800022F480734FF4D2721350704710B5024678
:104190000020936803F08063B3F1806F00D110E0DA
:1041A000936803F00063B3F1006F01D1012008E0D0
:1041B000936803F08053B3F1805F01D1022000E0E7
:1041C0000420042879D002F5C07303EB00131B68A8
:1041D00003F0010402F5C07303EB00131C600B7ABB
:1041E0007BB94B7A0C8843EA445302F5C07404EB64
:1041F00000142468234302F5C07404EB0014236008
:1042000010E00B7A4C6843EAC4034C7A234302F56E
:10421000C07404EB00142468234302F5C07404EB5B
:10422000001423608B7A03F00F038B7202F5C073C6
:1042300003EB00135B6823F00F0402F5C07303EB7C
:1042400000135C6002F5C07303EB00135B688C7AAB
:10425000234302F5C07404EB001463608B7B1C06DF
:104260004B7B44EA034403E00064004000660040E6
:104270000B7B44EA0323CC7A234302F5C07404EB9E
:104280000014A3608B7C1C064B7C44EA03440B7C2B
:1042900044EA0323CC7B234302F5C07404EB0014EF
:1042A000E36002F5C07303EB00131B6843F00104E5
:1042B00002F5C07303EB00131C6010BD10B502467D
:1042C000002321B1012907D002290FD109E090680C
:1042D000F94C00EA04030BE09068F84C00EA040390
:1042E00006E09068F64C00EA040301E0002300BFFA
:1042F00000BFF44C181BA34216D007DC83B16FF04B
:104300008060184470B1022818D111E0B0F5007F28
:1043100010D0ED4C204448B1B0F5003F0ED10BE079
:1043200002230DE000230BE0002309E0002307E057
:10433000012305E0012303E0012301E0002300BF86
:1043400000BFD8B210BD21B1012907D002290FD179
:1043500009E0826842F0800282600AE0826842F4EA
:104360000042826005E0826842F40002826000E060
:1043700000BF00BF704710B500F5D87303EB011301
:104380001B6803F004031372137A53B900F5D87352
:1043900003EB01131B6840F2FF7404EA53531360EC
:1043A00009E000F5D87303EB01131B686FF060445C
:1043B00004EAD303536000F5D87303EB01131B68C1
:1043C00003F00203537200F5D87303EB01135B682B
:1043D00003F00F03937200F5D87303EB01135B68CE
:1043E0001B0AD37400F5D87303EB01139B68D372D7
:1043F00000F5D87303EB01139B681C0A147300F5D6
:10440000D87303EB01139B681C0C547300F5D8732D
:1044100003EB01139B681B0E937300F5D87303EB3A
:104420000113DB68D37300F5D87303EB0113DB686A
:104430001C0A147400F5D87303EB0113DB681C0C21
:10444000547400F5D87303EB0113DB681B0E9374EF
:1044500021B9C36843F02003C36003E0036943F05C
:104460002003036110BD21B9C26842F02002C2607E
:1044700003E0026942F02002026170470246002018
:1044800019B9D36803F0030006E0012903D11369C9
:1044900003F0030000E00020704710B502460B4611
:1044A00000204FF6FF71BBB9146824F0020444F0F9
:1044B0000104146000E0491E546804F00304012C58
:1044C00001D00029F7D1546804F00304012C01D075
:1044D000002032E0012030E0012B13D1146824F0D9
:1044E0000304146000E0491E546804F003040CB196
:1044F0000029F8D1546804F003040CB100201CE03A
:1045000001201AE0022B17D1146824F0010444F0B2
:104510000204146000E0491E546804F00304022CF5
:1045200001D00029F7D1546804F00304022C01D013
:10453000002002E0012000E0002010BD0146002024
:104540000A6822F0010242F002020A604A6802F0A0
:104550000302022A00D10120704701464FF6FF7284
:1045600000200B6823F002030B6000E0521E4B6832
:1045700003F00203022B01D1002AF7D14B6803F0AC
:104580000203022B00D001207047014600208A69F7
:1045900002F070007047014600208A69100E7047D3
:1045A000014600208A69C2F3074070471AB1436987
:1045B0000B43436102E043698B434361704710B58D
:1045C0000246002001F4700343B19369C1F3130460
:1045D00023400BB101202DE000202BE001F080737F
:1045E00043B15368C1F3130423400BB1012021E010
:1045F00000201FE001F0006343B19368C1F313048E
:1046000023400BB1012015E0002013E001F00073FE
:1046100043B1D368C1F3130423400BB1012009E077
:10462000002007E01369C1F3130423400BB10120FC
:1046300000E0002010BD0022244B994202D100234B
:10464000836111E0C1F3130201F000730BB1C2608A
:104650000AE001F080630BB1026105E001F0006344
:104660000BB1826000E0426070470246002002EA1F
:1046700001030BB1012000E00020704770B5044633
:104680000D46002660692840002872D0B5F5807F6D
:1046900069D01DDC082D42D006DC012D2DD0022D65
:1046A00031D0042D7FD134E0102D3ED0202D42D0CA
:1046B000402D78D145E0000003000004000300080D
:1046C00000000310000100080001FFF77000F03047
:1046D000B5F5004F61D009DCB5F5007F4AD0B5F5DE
:1046E000806F4DD0B5F5006F5DD150E0B5F5803FDE
:1046F0002DD0B5F5003F56D12FE0A0685549FFF702
:10470000B4FF064651E0E0680321FFF7AEFF06461E
:104710004BE0E0680821FFF7A8FF064645E0E068A7
:104720001021FFF7A2FF06463FE020690321FFF7B3
:104730009CFF064639E020690821FFF796FF0646F0
:1047400033E020691021FFF790FF06462DE06068F6
:104750000821FFF78AFF064627E060681021FFF76F
:1047600084FF064621E0A0690121FFF77EFF06468F
:104770001BE01BE0A0690221FFF777FF064614E06B
:10478000A0690421FFF771FF06460EE00BE0A06967
:104790007021FFF76AFF064607E060680421FFF713
:1047A00064FF064601E0002600BF00E00026304618
:1047B00070BDB1F5007F3AD00FDC202928D006DC8F
:1047C00001291CD004291DD0082940D11DE0402911
:1047D00021D0B1F5807F3AD126E0B1F5004F31D03C
:1047E00006DCB1F5806F25D0B1F5006F2FD124E044
:1047F000B1F5803F12D0B1F5003F28D111E0154A44
:10480000826025E00822C26022E01022C2601FE020
:10481000082202611CE01022026119E008224260B5
:1048200016E01022426013E00422426010E00422ED
:1048300042600DE0042242600AE00022826104220C
:10484000426005E0002282610422426000E000BF75
:1048500000BF7047010101000E49086070470D4913
:10486000486070470B49886070474AF6AA2009499A
:10487000086070474CF6CC40064908607047014616
:104880000020044AD2680A400AB1012000E000205A
:10489000704700000030004010B50446FA488442DA
:1048A00008D101214015FEF783F900216015FEF7BC
:1048B0007FF917E0F548844208D101210015FEF781
:1048C00077F900212015FEF773F90BE0F0488442D8
:1048D00008D10121C803FEF76BF900214FF4004015
:1048E000FEF766F910BD30B502460020002350687F
:1048F000E84C20400D790C6844EA052420435060C0
:104900009068E54C2040D1E902542C434D7944EAAB
:10491000450420439060D06A20F470000C7C641E33
:10492000E4B2234340EA0350D06230BD002101606D
:10493000017141718160C16001210174704721B131
:10494000826842F00102826003E0826822F0010284
:104950008260704721B1826842F48072826003E015
:10496000826822F480728260704710B50023CBB257
:104970001AB144681C43446002E044689C434460AC
:1049800010BD816841F00801816070470146002038
:104990008A6802F008020AB1012000E00020704796
:1049A000816841F0040181607047014600208A68F7
:1049B00002F004020AB1012000E00020704721B19A
:1049C000826842F4A002826003E0826822F4A002BE
:1049D00082607047014600208A6802F480020AB1B2
:1049E000012000E00020704710B50A460021002396
:1049F000416821F46041531E41EA4331416010BDDA
:104A000021B1426842F40062426003E0426822F44D
:104A1000006242607047F0B504460D460020002158
:104A2000092D11DDE068A5F10A0606EB4607072609
:104A300006FA07F18843A5F10A0606EB460603FAD3
:104A400006F10843E0600CE0206905EB4507072606
:104A500006FA07F1884305EB450603FA06F1084319
:104A60002061072A0FDA606B561E06EB86071F26A9
:104A700006FA07F18843561E06EB860605FA06F18C
:104A80000843606322E00D2A0FDA206BD61F06EB85
:104A900086071F2606FA07F18843D61F06EB86060F
:104AA00005FA06F10843206310E0E06AA2F10D0662
:104AB00006EB86071F2606FA07F18843A2F10D06CA
:104AC00006EB860605FA06F10843E062F0BD21B167
:104AD000826842F48012826003E0826822F48012CD
:104AE000826070470146C86C80B2704766484C309F
:104AF0000068704721B1426842F48062426003E07E
:104B0000426822F480624260704721B1426842F4F8
:104B10008052426003E0426822F480524260704753
:104B20000A460021816821F4E04111438160704709
:104B300021B1826842F40042826003E0826822F47C
:104B400000428260704721B1826842F402128260A2
:104B500003E0826822F4021282607047014600205E
:104B60008A6802F400120AB1012000E000207047B8
:104B7000F0B504461546002000220026092911DD63
:104B8000E068A1F10A0707EB470C072707FA0CF2C8
:104B90009043A1F10A0707EB470703FA07F2104316
:104BA000E0600CE0206901EB410C072707FA0CF2EA
:104BB000904301EB410703FA07F210432061A06B19
:104BC000C0F30156EF1C06F1010CA7EB0C0707EB35
:104BD000870C1F2707FA0CF29043EF1C06F1010C1B
:104BE000A7EB0C0707EB870701FA07F21043A06356
:104BF000F0BD10B50A4600210023816B21F440115D
:104C0000531E41EA0351816310BD08B50023009390
:104C10000090009B0B440093009B1A6008BD08B5F0
:104C2000024600200090009201F12800009B1844E9
:104C300000900098006880B208BD0A4600214168D3
:104C4000164B1940114341607047416282627047C0
:104C50000A460021416821F01F011143416070475D
:104C600040B109490831096841F40001064A083297
:104C7000116007E004490831096821F40001024A83
:104C800008321160704700000024014000280140F4
:104C9000003C0140FFFEF0FFFDF7F1FFFFFD3FFF8D
:104CA0000246002013680B400BB1012000E00020F9
:104CB0007047CA430260704770B502460020002367
:104CC00000240B125568CEB205EA060415681D4093
:104CD00015B10CB1012000E0002070BD00220A12C5
:104CE000D34303607047000010B501214807FDF76A
:104CF0006CFF00214FF00050FDF767FF10BD30B58D
:104D0000002200235A4C226840F6FE748440A243DD
:104D1000D1E900452C438D682C43CD6844EA050356
:104D200003FA00F42243524C226030BD002101609E
:104D300041608160C160704739B14D4A12680123FA
:104D400083401A434A4B1A6006E0494A126801231D
:104D500083409A43464B1A60704741B1444A1268F7
:104D60004FF4805383401A43414B1A6007E0404A96
:104D700012684FF4805383409A433D4B1A6070474A
:104D800010B551B13A4A121D126804090123A3401B
:104D90001A43374B1B1D1A6009E0354A121D126871
:104DA00004090123A3409A43314B1B1D1A6010BD17
:104DB00040B12F49091D096841F003012C4A121D19
:104DC000116007E02A49091D096821F00301284AFA
:104DD000121D1160704710B53AB1254B1B6801FADE
:104DE00000F42343224C236006E0214B1B6801FAA8
:104DF00000F4A3431E4C236010BD08B500220092AE
:104E00001B4A009200F10802009B1A440092009A8B
:104E1000116008BD08B500220092154A009200F109
:104E20001402009B1A440092009A116008BD30B52C
:104E300000240023082802D142EA012401E042EACA
:104E400001440B4B00F120052B441C6030BD08B51C
:104E5000014600200090064800902C2000EB9100B5
:104E6000009A104400900098006880B208BD0000CD
:104E700000740040002044490860091D0860091DB5
:104E80000860091D086041483F49143108607047B7
:104E900000213D498279002A3AD00A461268036807
:104EA0009A430B461A600A1D126803689A430B1D49
:104EB0001A60027911440A6803681A430A60324A88
:104EC0000832126803689A432F4B08331A601A1D80
:104ED000126803689A432C4B0C331A604279102AEB
:104EE0000ED11A1F126803681A43274B08331A6041
:104EF0001A1D126803681A43234B0C331A600DE025
:104F00002149427911440A6803681A430A6005E09E
:104F1000027911440A6803689A430A6070470021C5
:104F2000016001710C2141710021817170471649A6
:104F3000103109680143144A10321160704701466C
:104F40000020114A143212680A400AB1012000E020
:104F5000002070470C49143108607047014600205A
:104F60000022094B1B6803EA0102074B14331B683C
:104F70000B4013B10AB1012000E000207047024944
:104F8000143108607047000000040140FFFF0F006B
:104F9000704700000FB4044910B503AA029800F04E
:104FA0004FF810BC5DF814FBFC000020032A40F20F
:104FB000308010F0030C00F0158011F8013BBCF1BB
:104FC000020F624498BF11F801CB00F8013B38BFD3
:104FD00011F8013BA2F1040298BF00F801CB38BFE1
:104FE00000F8013B11F0030300F03C80083AC0F0E8
:104FF000088051F8043B083A51F804CBA0E80810A7
:10500000F5E7121D5CBF51F8043B40F8043BAFF3D9
:105010000080D20724BF11F8013B11F801CB48BF33
:1050200011F8012B24BF00F8013B00F801CB48BF69
:1050300000F8012B704770477047704770470000B9
:10504000074B70B50D467B4400F043F804462846F4
:1050500000F052F810B14FF0FF3070BD204670BD27
:10506000ADD2FFFF10B5203AC0F00B80B1E8185068
:10507000203AA0E81850B1E81850A0E81850BFF442
:10508000F5AF5FEA027C24BFB1E81850A0E81850E1
:1050900044BF18C918C0BDE810405FEA827C24BF35
:1050A00051F8043B40F8043B08BF7047D20728BFC3
:1050B00031F8023B48BF11F8012B28BF20F8023B12
:1050C00048BF00F8012B704701694A1C026108784B
:1050D000704700B58FB0CDE9013100210591054938
:1050E0007944CDE903101146684600F02EF80FB060
:1050F00000BD0000E5FFFFFF007B00F0800070476F
:10510000754600F03DF8AE4605006946534620F06E
:105110000700854618B020B5FDF794F9BDE820409A
:105120004FF000064FF000074FF000084FF0000B63
:1051300021F00701AC46ACE8C009ACE8C009ACE816
:10514000C009ACE8C0098D4670472DE9F04106461C
:105150000024D6E90170F5688046304603E04146F8
:10516000B847641C3046A8470028F8D12046BDE85F
:10517000F0810446AFF300802046FBF720F80000E2
:10518000004870476802002021F00042A2F16052FE
:10519000B2F5801F01F0004328BFD2F17F6C0BD91C
:1051A0005FEA001C43EAC20242EB507018BF70472E
:1051B00028BF20F001007047B2F5801FBCBF184621
:1051C00070474FEA410C1CF5001F02D2084600F060
:1051D000FABB70B500F0A2F900000089FFF7F6BF36
:1051E0004FF00040A0F58000704700002DE9C0415D
:1051F00030B4DFF8A0C23CEA111418BF3CEA131423
:1052000000F0EC8081EA03051CEA111444EAD5742D
:1052100018BF1CEA131500F0C780A4EB05044FF07B
:10522000004545EAC12145EAC32341EA505143EA1A
:10523000525304F17F74994204F500344FEAC020C0
:105240004FEAC22208BF904200F09C804FEA1365EB
:105250000FF24016765D4FEA134506FB05F7C7F1DE
:10526000807706FB07F74FEAD737A7FB036876423C
:10527000C8F58038A7FB06CE38BFA8F1010807FBA8
:1052800008E64FF0000EA6FB028CE6FB03CEDCF135
:10529000000CCEF1004E38BFAEF1010EA6FB0C584B
:1052A0004FF000074FF00005E6FB0E87A1FB08C694
:1052B000A0FB07CE16EB0E0645F10005E1FB0765E6
:1052C00015F1E04E7EBFA4F580345FEA46066D41DD
:1052D00016F1800745F100054FEA17274FEA0666E9
:1052E00047EA0567A6F1DE46B6F1805F4FEA15256D
:1052F0001FD9384624F0010C05EBC471BCF1FE6FD8
:1053000001EB0C1102D8F0BCBDE8008124425CBF67
:1053100001F5801E9EEAC47F02D4F0BCBDE8008186
:10532000244238D4F0BCA1F1C041BDE8004100F0F6
:1053300043B94FEAD22242EA43524FEAD323A7FBB2
:1053400002864FEAD02040EA415007FB03661EEA7E
:105350000E0F4FEAD12105FB026658BFA6EB00569F
:10536000B6EB00564FEA520E4EEAC37E18EB0E0E15
:1053700056EB530EBDD518EB02085E417F1C55F16C
:105380000005B6E74FF480154FF000074FF0000618
:105390004FF00008ADE7F0BC4FF0000001F1C04154
:1053A00001F00041BDE8008111EA0C1F0CEA131561
:1053B00000D00CE013EA0C1F00F025804FF0000035
:1053C000F0BC81EA030101F00041BDE80081F0BCBE
:1053D000BDE8004181EA030100F0EEB8F0BCBDE891
:1053E000004170B500F09AF8097EFC3E00F007B865
:1053F00081EA03014FF0000001F00041704781EAAB
:10540000030100F0D9B8F0BCBDE800414FF0000046
:1054100021497047FFFDFBF9F7F5F4F2F0EEEDEBF3
:10542000E9E8E6E4E3E1E0DEDDDBDAD8D7D5D4D3A2
:10543000D1D0CFCDCCCBCAC8C7C6C5C4C2C1C0BFEE
:10544000BEBDBCBBBAB9B8B7B6B5B4B3B2B1B0AFF4
:10545000AEADACABAAA9A8A8A7A6A5A4A3A3A2A1D8
:10546000A09F9F9E9D9C9C9B9A9999989797969593
:1054700095949393929191908F8F8E8E8D8C8C8B2F
:105480008B8A8989888887878685858484838382B7
:10549000828181800000FF070000F87F4FEA1153EE
:1054A000A3F58063D3F11E03A8BFD3F1200C08DB62
:1054B0004FF0004242EAC12252EA505232FA03F05F
:1054C000704709420BD4102BC4BF0020704703F56E
:1054D000787CBCF1FF3F05D04FF0FF3070474FF0B4
:1054E0000000704770B500F019F800BF49922480A1
:1054F00000207047F0E7B0FA80F310FA03F10AD009
:10550000C3F11D0303F580634FEA41504FEA035294
:1055100002EBD12170474FF0000070470EF1020EF0
:105520002EF0030E5EF8046B364205D4012A43EBDD
:10553000030515F5001F12D8012841EB010C1CF5DD
:10554000001F0CD80ED14FEAD17C15F5001F0CEBD3
:105550004C0C0CF1020C08BF4CEBD37C04E04FF078
:10556000080C01E04FEAD37C0CEB4C0526FA05F65B
:1055700006F00706B6F1040C06D20EEB860CBDE869
:1055800070404CF0010C6047DFE80CF0090B0202A0
:105590004FF000414FF00000A1F5002170BD194609
:1055A0001046012851EB010418BFD4F5001484BF44
:1055B000002001F0004170BD0808A0F500114FEA7D
:1055C0003101704743004FEAD30C4FEA3C0C434093
:1055D0001FBF40070CF1605113F0FE4F70471CF0E5
:1055E000006F03D100200CF0004170470CF0004325
:1055F00043EA507010B540EACC0000F09EF900BFBD
:10560000000000924FEA0001FFF7D6BF4FF00041C3
:105610004FF00000A1F50021704700004FF47F0C0F
:105620001CEAD0121EBF1CEAD11392EA0C0F93EAB7
:105630000C0F00F0858090EA010F48BF42F48072A1
:1056400040F4000C41F400002CF07F4120F07F403A
:1056500000B58142A2EB03020FF2081CACEB504EE6
:10566000C0F100009EF800E04FEA4E0E00FB0EFC79
:1056700038BF49004FEA2C1C02F5FA020CFB0EF36E
:105680004FEACE1E4FEA112C4FEAC1210EEB635EAA
:1056900042EB22420EFB0CFC4FEA1C5300FB0311B1
:1056A0004FEA112C4FEA01310EFB0CFC4FEADC4CA7
:1056B00000FB0C11C14228BF09184CEB03335DF805
:1056C00004EB10EB410143EBC250B2F57C0F38BF45
:1056D000704729D512F0F00F1CBF00F1C04000F058
:1056E00000407047008182838485868788898B8CFF
:1056F0008D8E8F919293959697999A9C9D9FA0A23B
:10570000A3A5A7A8AAACAEB0B2B3B5B7B9BCBEC08A
:10571000C2C5C7C9CCCED1D4D7D9DCDFE2E6E9EC2B
:10572000F0F3F7FAFE0000004FEA400C0CF1807C29
:10573000BCF17E4F28BF7047B0F1C04000F043B9C4
:1057400090EA010F0CEAD11348BF42F4807262451F
:1057500038BF634507D213F47F0F16D080EA0100EB
:1057600000F00040704710B500F0E7F8097EFC3EFD
:1057700000F005B880EA010000F00040704780EAC0
:10578000010000F0004000F01EB912F47F0F04BFCA
:105790000248704780EA010000F015B90000C07FA0
:1057A000C10DD1F19E0206DB4FEA002343F0004316
:1057B00023FA02F07047004207D54FEA4001B1F1E9
:1057C000FE4F02D24FF00000704710B500F0B5F860
:1057D00049922480002070476FEA20007047000043
:1057E00010F0004148BF4042B0FA80F310FA03F2D3
:1057F000C3F19D030BD051EAC35101EB12205306B4
:1058000038BF704700F1010008BF20F00100704769
:10581000B0FA80F310FA03F2C3F19D030AD0D90560
:1058200001EB1220530638BF704700F1010008BF9A
:1058300020F00100704700004FF47F0C1CEAD012EA
:105840001EBF1CEAD11392EA0C0F93EA0C0F00F072
:10585000478090EA010F48BF42F480724FF0004C3D
:105860004CEA00204CEA012102EB0302A0FB0113E9
:10587000A2F50002002918BF43F001035B0028BF16
:105880004FEA330342EB22425FEA132C4CEBC25047
:105890002EBFBCEB436FB2F57C0F70474FEA036C31
:1058A000BCF1004F08BF20F00100B2F57C0F38BFFB
:1058B00070470BD582F0FF0212F5803FC8BF7047DA
:1058C00000F1C040D8BF00F00040704700F5000C68
:1058D0005FEA4C0C48BF7047B0F1C04000F073B8AD
:1058E00090EA010F0CEAD11348BF42F4807262457E
:1058F00038BF634504D280EA010000F000407047E1
:1059000010B500F01AF800BF8900013E00F007B89A
:1059100000F009B85FEA410C5FEA1C6C08D080EA2D
:10592000010000F050B85FEA400C5FEA1C6CF6D151
:105930004FF00040A0F5800070470EF1020E2EF0EF
:10594000030E5EF8044B244204D44FEA4102B2F144
:105950007F4F11D84FEA4003B3F17F4F0CD80ED1DF
:105960004FEAD07CB2F17F4F0CEB4C0C0CF1020CE7
:1059700008BF4CEBD17C04E04FF0080C01E04FEA8B
:10598000D17C0CEB4C0324FA03F404F00704B4F1CB
:10599000040C06D20EEB840CBDE810404CF0010C58
:1059A0006047DFE80CF0070802024FF00040A0F566
:1059B000800010BD0846420018BFD2F1807288BF37
:1059C00000F0004010BDFF2141EAD050C0057047F3
:1059D000F059000800000020180100006C010008C8
:1059E000085B000818010020B007000088010008CB
:1059F00000A24A04000000000000000001020304AD
:105A00000607080900000000000000000000000078
:105A10000000000000000000000000000000000086
:105A20000000000000000000000000000000000076
:105A30000000000000000000000000000000000066
:105A40000000000000000000000000000000000056
:105A50000000000000000000000000000000000046
:105A60000000000000000000000000000000000036
:105A70000000000000000000000000000000000026
:105A80000000000000000000000000000000000016
:105A90000000000000000000000000000000000006
:105AA00000000000000000000000000000000000F6
:105AB00000000000000000000000000000000000E6
:105AC00000000000000000000000000000000000D6
:105AD00000000000000000000000000000000000C6
